:100000000C9434000C9451000C9451000C94510049
:100010000C9451000C9451000C9451000C9451001C
:100020000C9451000C9451000C9451000C9451000C
:100030000C9451000C9451000C9451000C945100FC
:100040000C9451000C9451000C9451000C945100EC
:100050000C9451000C94AA060C9451000C9451007D
:100060000C9451000C94510011241FBECFEFD8E026
:10007000DEBFCDBF11E0A8E0B1E001C01D92AD3000
:10008000B107E1F711E0A0E0B1E0E2E8FDE102C074
:1000900005900D92A830B107D9F70E94090D0C9474
:1000A000BF0E0C940000EF92FF920F931F937B0101
:1000B0008C0120E030E040E05FE40E94530388239D
:1000C0008CF0C801B70120E030E040E05FE40E941E
:1000D000CB010E94B3039B01AC0120503040404053
:1000E000504806C0C801B7010E94B3039B01AC0190
:1000F000B901CA011F910F91FF90EF900895A0E000
:10010000B0E0E5E8F0E00C94880EDC012B01FA0188
:100110009C91923008F439C1EB018881823008F457
:1001200033C1943069F4843009F02FC111969C9149
:1001300011978981981709F428C1A0E0B1E025C181
:10014000843009F421C18230A9F4923009F01DC134
:100150009A01AD0188E0EA010990AE01E901099236
:100160009E018150C1F7E201898111969C918923FA
:10017000818308C1923009F407C112962D903C90FA
:100180001397EB018A819B811496AD90BD90CD9021
:10019000DC901797EC80FD800E811F819101281B58
:1001A000390BB90137FF04C066277727621B730B31
:1001B000603271050CF061C0121613066CF5370140
:1001C0004801062E04C096948794779467940A9405
:1001D000D2F721E030E040E050E004C0220F331FAE
:1001E000441F551F6A95D2F721503040404050407F
:1001F0002E213F2140235123211531054105510571
:1002000021F021E030E040E050E079018A01E62869
:10021000F728082919293CC0232BD1F1260E371EB7
:1002200035014601062E04C096948794779467940E
:100230000A94D2F721E030E040E050E004C0220F01
:10024000331F441F551F6A95D2F72150304040405C
:1002500050402A213B214C215D21211531054105CA
:10026000510521F021E030E040E050E059016A0101
:10027000A628B728C828D9280BC0821593052CF0CA
:100280001C01AA24BB24650103C0EE24FF248701BE
:1002900011969C91D20111968C91981709F445C042
:1002A000992339F0A80197012A193B094C095D09E6
:1002B00006C0A60195012E193F09400B510B57FDB1
:1002C00008C0118233822282248335834683578378
:1002D0001DC081E081833382228288279927DC0137
:1002E000821B930BA40BB50B84839583A683B783E2
:1002F0000DC0220F331F441F551F248335834683AF
:1003000057838281938101979383828324813581EE
:1003100046815781DA01C9010197A109B1098F5FAF
:100320009F4FAF4FBF4328F30BC09183338222828C
:10033000EA0CFB1C0C1D1D1DE482F582068317834D
:1003400083E08083248135814681578157FF1AC01D
:10035000C901AA2797FDA095BA2F81709070A0704F
:10036000B0705695479537952795822B932BA42BE4
:10037000B52B84839583A683B7838281938101966D
:1003800093838283DF0101C0D201CD01CDB7DEB7F7
:10039000E2E10C94A40EA0E2B0E0E1EDF1E00C94F7
:1003A000940E69837A838B839C832D833E834F8352
:1003B0005887E9E0EE2EF12CEC0EFD1ECE010196E1
:1003C000B7010E94DC048E010F5E1F4FCE0105961F
:1003D000B8010E94DC048A8991E089278A8BC701D1
:1003E000B801AE01475E5F4F0E947F000E94070484
:1003F000A096E6E00C94B00EA0E2B0E0E2E0F2E0FD
:100400000C94940E69837A838B839C832D833E8323
:100410004F835887F9E0EF2EF12CEC0EFD1ECE0134
:100420000196B7010E94DC048E010F5E1F4FCE01C2
:100430000596B8010E94DC04C701B801AE01475E11
:100440005F4F0E947F000E940704A096E6E00C9494
:10045000B00EA0E2B0E0EFE2F2E00C94880E698307
:100460007A838B839C832D833E834F835887CE0171
:100470000196BE01675F7F4F0E94DC04CE010596A6
:10048000BE016F5E7F4F0E94DC049985923088F038
:1004900089898230C8F0943019F4823051F404C054
:1004A000843029F4923081F480E091E0C6C092302B
:1004B00049F420E09A858A89981321E02A87CE01A1
:1004C0000996BBC0823049F420E09A858A89981346
:1004D00021E02A8BCE014196B0C02D843E844F840A
:1004E00058886D887E888F88988CEE24FF24870139
:1004F000AA24BB24650140E050E060E070E0E0E049
:10050000F0E0C10181709070892BE9F0E60CF71CD6
:10051000081D191D9A01AB012A0D3B1D4C1D5D1DC7
:1005200080E090E0A0E0B0E0E614F70408051905CB
:1005300020F481E090E0A0E0B0E0BA01A901480F0A
:10054000591F6A1F7B1FAA0CBB1CCC1CDD1C97FE0D
:1005500008C081E090E0A0E0B0E0A82AB92ACA2A49
:10056000DB2A3196E032F10549F0660C771C881CD5
:10057000991C5694479437942794C3CFFA85EA89F7
:100580002B893C898B859C85280F391F2E5F3F4F17
:1005900017C0CA0181709070892B61F0169507957C
:1005A000F794E79480E090E0A0E0B0E8E82AF92A28
:1005B0000A2B1B2B76956795579547952F5F3F4FD5
:1005C00077FDE7CF0CC0440F551F661F771F17FD3F
:1005D0004160EE0CFF1C001F111F215030404030C5
:1005E00090E0590790E0690790E4790760F32B8F5A
:1005F0003C8FDB01CA018F779070A070B07080349F
:100600009105A105B10561F447FD0AC0E114F104AB
:100610000105110529F0405C5F4F6F4F7F4F407817
:100620001A8EFE1711F081E08A8F4D8F5E8F6F8FCB
:1006300078A383E0898FCE0149960E940704A09693
:10064000E2E10C94A40EA8E1B0E0E9E2F3E00C943E
:10065000940E69837A838B839C832D833E834F839F
:10066000588789E0E82EF12CEC0EFD1ECE01019694
:10067000B7010E94DC048E010F5E1F4FCE0105966C
:10068000B8010E94DC048985823040F0898982307B
:1006900028F0C701B8010E94540501C08FEF689689
:1006A000E6E00C94B00EA8E1B0E0E9E5F3E00C94CC
:1006B000940E69837A838B839C832D833E834F833F
:1006C000588789E0E82EF12CEC0EFD1ECE01019634
:1006D000B7010E94DC048E010F5E1F4FCE0105960C
:1006E000B8010E94DC048985823040F0898982301B
:1006F00028F0C701B8010E94540501C08FEF689629
:10070000E6E00C94B00EA8E1B0E0E9E8F3E00C9468
:10071000940E69837A838B839C832D833E834F83DE
:10072000588789E0E82EF12CEC0EFD1ECE010196D3
:10073000B7010E94DC048E010F5E1F4FCE010596AB
:10074000B8010E94DC048985823040F089898230BA
:1007500028F0C701B8010E94540501C081E06896E5
:10076000E6E00C94B00EACE0B0E0E9EBF3E00C9402
:10077000980E69837A838B839C83CE010196BE0198
:100780006B5F7F4F0E94DC048D81823061F182308B
:1007900050F1843021F48E81882351F12EC02F81B5
:1007A000388537FD20C06E812F3131051CF066235E
:1007B000F9F023C08EE190E0821B930B29853A85E6
:1007C0004B855C8504C056954795379527958A9546
:1007D000D2F76623B1F050954095309521953F4F63
:1007E0004F4F5F4F0EC020E030E040E050E009C0C6
:1007F0002FEF3FEF4FEF5FE704C020E030E040E035
:1008000050E8B901CA012C96E2E00C94B40EDF92D4
:10081000EF92FF920F931F93FC01E480F580068115
:100820001781D1808081823048F480E090E0A0E19F
:10083000B0E0E82AF92A0A2B1B2BA5C0843009F462
:100840009FC0823021F4EE24FF24870105C0E1140B
:10085000F1040105110519F4E0E0F0E096C06281B1
:1008600073819FEF623879070CF05BC022E83FEF9D
:10087000261B370B2A3131052CF020E030E040E018
:1008800050E02AC0B801A701022E04C076956795F2
:10089000579547950A94D2F781E090E0A0E0B0E048
:1008A00004C0880F991FAA1FBB1F2A95D2F7019772
:1008B000A109B1098E219F21A023B1230097A10591
:1008C000B10521F081E090E0A0E0B0E09A01AB0139
:1008D000282B392B4A2B5B2BDA01C9018F779070BB
:1008E000A070B07080349105A105B10539F427FFDF
:1008F00009C0205C3F4F4F4F5F4F04C0215C3F4F0A
:100900004F4F5F4FE0E0F0E02030A0E03A07A0E07A
:100910004A07A0E45A0710F0E1E0F0E079018A010B
:1009200027C06038710564F5FB01E158FF4FD8011D
:10093000C7018F779070A070B07080349105A105C9
:10094000B10539F4E7FE0DC080E490E0A0E0B0E02E
:1009500004C08FE390E0A0E0B0E0E80EF91E0A1FAB
:100960001B1F17FF05C016950795F794E79431965E
:1009700087E016950795F794E7948A95D1F705C017
:10098000EE24FF248701EFEFF0E06E2F67956627D6
:100990006795902F9F77D794DD24D7948E2F8695D7
:1009A000492F462B582F5D29B701CA011F910F917E
:1009B000FF90EF90DF900895FC01DB0140815181B1
:1009C0002281622F6F7770E0221F2227221F9381DE
:1009D000892F880F822B282F30E0991F9927991F84
:1009E00011969C93119721153105A9F541155105D3
:1009F0006105710511F482E037C082E89FEF13961C
:100A00009C938E9312979A01AB0167E0220F331FDC
:100A1000441F551F6A95D1F783E08C930DC0220FB8
:100A2000331F441F551F12968D919C911397019768
:100A300013969C938E931297203080E0380780E0C5
:100A4000480780E4580758F314962D933D934D932F
:100A50005C93179708952F3F310579F4411551059F
:100A60006105710519F484E08C93089564FF03C057
:100A700081E08C9312C01C9210C02F573040139607
:100A80003C932E93129783E08C9387E0440F551F7D
:100A9000661F771F8A95D1F7706414964D935D9306
:100AA0006D937C93179708951F93DC01FB019C9134
:100AB000923008F447C08081823008F443C09430FB
:100AC00051F411961C91843099F58181682F70E062
:100AD000611B71093FC0843021F0923031F48230C3
:100AE000B9F18181882389F12DC011961C9111974C
:100AF0008230F1F081811817D9F412962D913C9132
:100B00001397828193818217930794F028173907EE
:100B1000BCF014968D919D910D90BC91A02D2481D7
:100B2000358146815781281739074A075B0718F432
:100B3000112341F00AC082179307A407B50740F4B8
:100B4000112319F061E070E005C06FEF7FEF02C084
:100B500060E070E0CB011F910895DF93CF93CDB794
:100B6000DEB7ACE7B0E0ECE7F0E080818F7B8C9300
:100B7000ACE7B0E0ECE7F0E080818F778C93ACE7F6
:100B8000B0E0ECE7F0E0808180628C93AAE7B0E00F
:100B9000EAE7F0E0808180688C93AAE7B0E0EAE7BA
:100BA000F0E08081887F8C93AAE7B0E0EAE7F0E08C
:100BB000808187608C93CF91DF910895DF93CF93ED
:100BC000CDB7DEB728970FB6F894DEBF0FBECDBF06
:100BD0008E8378876F831A821B821C821D82198202
:100BE00080910C01882309F054C081E080930C01AE
:100BF000ACE7B0E0ECE7F0E08081807F8C93ACE77D
:100C0000B0E0ECE7F0E090818E81892B8C93AAE72D
:100C1000B0E0EAE7F0E0808180648C930BC08A81C9
:100C20009B81AC81BD810196A11DB11D8A839B83EF
:100C3000AC83BD83EAE7F0E0808182958F70882FD6
:100C400090E081709070009761F48A819B81AC8103
:100C5000BD81803523EC920720E0A20720E0B20797
:100C6000F1F68A819B81AC81BD81803523EC9207AE
:100C700020E0A20720E0B20719F481E089830BC0CD
:100C8000E9E7F0E08081EF81F885808310920C0124
:100C900002C083E08983898128960FB6F894DEBF6D
:100CA0000FBECDBFCF91DF910895DF93CF9300D0DA
:100CB00000D000D0CDB7DEB78A837C836B835E83A0
:100CC0004D83198280910C018823C1F581E08093C6
:100CD0000C018B819C81009721F08D819E81009772
:100CE00019F482E089832CC08B819C819093090147
:100CF000809308018D819E8190930B0180930A015E
:100D0000ACE7B0E0ECE7F0E08081807F8C93ACE76B
:100D1000B0E0ECE7F0E090818A81892B8C93AAE720
:100D2000B0E0EAE7F0E0808180648C93AAE7B0E06D
:100D3000EAE7F0E0808188608C9302C083E08983D9
:100D4000898126960FB6F894DEBF0FBECDBFCF9136
:100D5000DF9108951F920F920FB60F9211242F93D7
:100D60003F934F935F936F937F938F939F93AF9333
:100D7000BF93EF93FF93DF93CF93CDB7DEB7A091EF
:100D80000801B0910901E9E7F0E080818C931092AD
:100D90000C01E0910A01F0910B010995AAE7B0E07E
:100DA000EAE7F0E08081877F8C93CF91DF91FF911C
:100DB000EF91BF91AF919F918F917F916F915F91D3
:100DC0004F913F912F910F900FBE0F901F9018954C
:100DD000DF93CF93CDB7DEB76D970FB6F894DEBF34
:100DE0000FBECDBF8D8F82E060E040E00E94520BCD
:100DF00082E061E040E00E94520B8D8D982F929529
:100E00009F7080E0692F0E94230C82E062E041E045
:100E10000E94520B80E090E0A0E4B0E4898F9A8FAA
:100E2000AB8FBC8F698D7A8D8B8D9C8D20E030E0EF
:100E30004AEF54E40E942902DC01CB018D8B9E8B8A
:100E4000AF8BB88F6D897E898F89988D20E030E0D7
:100E500040E85FE30E94830388232CF481E090E064
:100E60009C8B8B8B3FC06D897E898F89988D20E00C
:100E70003FEF4FE757E40E94230318164CF5698DA6
:100E80007A8D8B8D9C8D20E030E040E251E40E9411
:100E90002902DC01CB01BC01CD010E945300DC0121
:100EA000CB019C8B8B8B0FC088EC90E09A8B898B4D
:100EB00089899A890197F1F79A8B898B8B899C890B
:100EC00001979C8B8B8B8B899C89009769F714C049
:100ED0006D897E898F89988D0E945300DC01CB013A
:100EE0009C8B8B8B8B899C89988B8F878F8598891E
:100EF0000197F1F7988B8F8782E062E040E00E94D3
:100F0000520B80E06D8D0E94230C82E062E041E094
:100F10000E94520B80E090E0A0E4B0E48B879C87B5
:100F2000AD87BE876B857C858D859E8520E030E012
:100F30004AEF54E40E942902DC01CB018F83988799
:100F4000A987BA876F81788589859A8520E030E006
:100F500040E85FE30E94830388232CF481E090E063
:100F60009E838D833FC06F81788589859A8520E037
:100F70003FEF4FE757E40E94230318164CF56B85AB
:100F80007C858D859E8520E030E040E251E40E9422
:100F90002902DC01CB01BC01CD010E945300DC0120
:100FA000CB019E838D830FC088EC90E09C838B8364
:100FB0008B819C810197F1F79C838B838D819E812E
:100FC00001979E838D838D819E81009769F714C060
:100FD0006F81788589859A850E945300DC01CB0159
:100FE0009E838D838D819E819A83898389819A8155
:100FF0000197F1F79A83898382E062E040E00E94E2
:10100000520B6D960FB6F894DEBF0FBECDBFCF91D9
:10101000DF910895DF93CF93CDB7DEB76D970FB60D
:10102000F894DEBF0FBECDBF8D8F82E060E041E05F
:101030000E94520B82E061E040E00E94520B8D8DD5
:10104000982F92959F7080E0692F0E94230C82E078
:1010500062E041E00E94520B80E090E0A0E4B0E446
:10106000898F9A8FAB8FBC8F698D7A8D8B8D9C8D7C
:1010700020E030E04AEF54E40E942902DC01CB0179
:101080008D8B9E8BAF8BB88F6D897E898F89988D64
:1010900020E030E040E85FE30E94830388232CF4E3
:1010A00081E090E09C8B8B8B3FC06D897E898F891E
:1010B000988D20E03FEF4FE757E40E942303181676
:1010C0004CF5698D7A8D8B8D9C8D20E030E040E26F
:1010D00051E40E942902DC01CB01BC01CD010E9438
:1010E0005300DC01CB019C8B8B8B0FC088EC90E014
:1010F0009A8B898B89899A890197F1F79A8B898BC9
:101100008B899C8901979C8B8B8B8B899C89009701
:1011100069F714C06D897E898F89988D0E9453006C
:10112000DC01CB019C8B8B8B8B899C89988B8F8767
:101130008F8598890197F1F7988B8F8782E062E01D
:1011400040E00E94520B80E06D8D0E94230C82E0F3
:1011500062E041E00E94520B80E090E0A0E4B0E445
:101160008B879C87AD87BE876B857C858D859E85AB
:1011700020E030E04AEF54E40E942902DC01CB0178
:101180008F839887A987BA876F81788589859A85A3
:1011900020E030E040E85FE30E94830388232CF4E2
:1011A00081E090E09E838D833FC06F817885898543
:1011B0009A8520E03FEF4FE757E40E94230318167B
:1011C0004CF56B857C858D859E8520E030E040E286
:1011D00051E40E942902DC01CB01BC01CD010E9437
:1011E0005300DC01CB019E838D830FC088EC90E01F
:1011F0009C838B838B819C810197F1F79C838B83EC
:101200008D819E8101979E838D838D819E81009724
:1012100069F714C06F81788589859A850E9453008B
:10122000DC01CB019E838D838D819E819A8389838E
:1012300089819A810197F1F79A83898382E062E03C
:1012400040E00E94520B6D960FB6F894DEBF0FBEC1
:10125000CDBFCF91DF910895DF93CF93CDB7DEB7A8
:101260002E970FB6F894DEBF0FBECDBF80E090E0A2
:10127000A0E2B2E48B879C87AD87BE876B857C85B7
:101280008D859E8520E030E04AEF54E40E942902DB
:10129000DC01CB018F839887A987BA876F81788516
:1012A00089859A8520E030E040E85FE30E9483036F
:1012B00088232CF481E090E09E838D833FC06F8172
:1012C000788589859A8520E03FEF4FE757E40E94B3
:1012D000230318164CF56B857C858D859E8520E053
:1012E00030E040E251E40E942902DC01CB01BC0164
:1012F000CD010E945300DC01CB019E838D830FC082
:1013000088EC90E09C838B838B819C810197F1F723
:101310009C838B838D819E8101979E838D838D819C
:101320009E81009769F714C06F81788589859A85B9
:101330000E945300DC01CB019E838D838D819E81B1
:101340009A83898389819A810197F1F79A838983A6
:1013500083E30E94E80682E30E94E80688E20E9496
:10136000E8068CE00E94E80686E00E94E80681E03C
:101370000E94E8062E960FB6F894DEBF0FBECDBFD2
:10138000CF91DF910895DF93CF9300D00F92CDB727
:10139000DEB79B838A8319820EC08981282F30E0B3
:1013A0008A819B81FC01E20FF31F80810E940A0861
:1013B00089818F5F89838981282F30E08A819B8191
:1013C000FC01E20FF31F8081882339F70F900F9003
:1013D0000F90CF91DF910895DF93CF9300D00F92BC
:1013E000CDB7DEB78A836B838A81882319F48B811A
:1013F000898306C08A81813019F48B81805C89835E
:10140000898180580E94E8060F900F900F90CF912D
:10141000DF910895DF93CF93CDB7DEB727970FB64F
:10142000F894DEBF0FBECDBF9C838B836D834E834C
:101430002F838D81882F90E0880F991F880F991F27
:10144000880F991F8A838A81805C0E94E80619822E
:101450000EC08981282F30E08B819C81FC01E20F36
:10146000F31F80810E940A0889818F5F89838981A7
:10147000883078F38E816F810E94EC098D810E9403
:101480000A0827960FB6F894DEBF0FBECDBFCF91E6
:10149000DF910895DF93CF93CDB7DEB728970FB6CE
:1014A000F894DEBF0FBECDBF8A836B834C83198255
:1014B0008B81883008F0B3C08C81882309F056C036
:1014C0008A81282F30E038872F838F81988581305B
:1014D0009105F9F02F8138852230310579F18F811E
:1014E0009885009709F03FC0AAE2B0E0EAE2F0E098
:1014F0008081482F8B81282F30E081E090E0022E00
:1015000002C0880F991F0A94E2F7809584238C9378
:1015100088C0A7E2B0E0E7E2F0E08081482F8B814D
:10152000282F30E081E090E0022E02C0880F991F42
:101530000A94E2F7809584238C9373C0A4E2B0E010
:10154000E4E2F0E08081482F8B81282F30E081E0B9
:1015500090E0022E02C0880F991F0A94E2F780954E
:1015600084238C935EC081E089835BC08C81813051
:1015700009F052C08A81282F30E03E832D838D816F
:101580009E8181309105E9F02D813E812230310527
:1015900061F18D819E810097E1F5AAE2B0E0EAE277
:1015A000F0E08081482F8B81282F30E081E090E0AF
:1015B000022E02C0880F991F0A94E2F7842B8C93A5
:1015C00030C0A7E2B0E0E7E2F0E08081482F8B81F5
:1015D000282F30E081E090E0022E02C0880F991F92
:1015E0000A94E2F7842B8C931CC0A4E2B0E0E4E2FE
:1015F000F0E08081482F8B81282F30E081E090E05F
:10160000022E02C0880F991F0A94E2F7842B8C9354
:1016100008C081E0898305C081E0898302C081E040
:101620008983898128960FB6F894DEBF0FBECDBF9F
:10163000CF91DF910895DF93CF9300D000D00F9228
:10164000CDB7DEB78A836B8319828A81282F30E079
:101650003D832C838C819D818130910571F02C819B
:101660003D812230310571F08C819D81009779F4A4
:10167000EAE2F0E08B8180830CC0E7E2F0E08B814E
:10168000808307C0E4E2F0E08B81808302C081E0C8
:10169000898389810F900F900F900F900F90CF91B9
:1016A000DF910895DF93CF93CDB7DEB728970FB6BC
:1016B000F894DEBF0FBECDBF8A836B834C83198243
:1016C0008B81883008F0B3C08C81882309F056C024
:1016D0008A81282F30E038872F838F819885813049
:1016E0009105F9F02F8138852230310579F18F810C
:1016F0009885009709F03FC0ABE2B0E0EBE2F0E084
:101700008081482F8B81282F30E081E090E0022EED
:1017100002C0880F991F0A94E2F7809584238C9366
:1017200088C0A8E2B0E0E8E2F0E08081482F8B8139
:10173000282F30E081E090E0022E02C0880F991F30
:101740000A94E2F7809584238C9373C0A5E2B0E0FD
:10175000E5E2F0E08081482F8B81282F30E081E0A6
:1017600090E0022E02C0880F991F0A94E2F780953C
:1017700084238C935EC081E089835BC08C8181303F
:1017800009F052C08A81282F30E03E832D838D815D
:101790009E8181309105E9F02D813E812230310515
:1017A00061F18D819E810097E1F5ABE2B0E0EBE263
:1017B000F0E08081482F8B81282F30E081E090E09D
:1017C000022E02C0880F991F0A94E2F7842B8C9393
:1017D00030C0A8E2B0E0E8E2F0E08081482F8B81E1
:1017E000282F30E081E090E0022E02C0880F991F80
:1017F0000A94E2F7842B8C931CC0A5E2B0E0E5E2EA
:10180000F0E08081482F8B81282F30E081E090E04C
:10181000022E02C0880F991F0A94E2F7842B8C9342
:1018200008C081E0898305C081E0898302C081E02E
:101830008983898128960FB6F894DEBF0FBECDBF8D
:10184000CF91DF910895DF93CF9300D000D00F9216
:10185000CDB7DEB78A836B8319828A81282F30E067
:101860003D832C838C819D818130910571F02C8189
:101870003D812230310571F08C819D81009779F492
:10188000EBE2F0E08B8180830CC0E8E2F0E08B813A
:10189000808307C0E5E2F0E08B81808302C081E0B5
:1018A000898389810F900F900F900F900F90CF91A7
:1018B000DF910895DF93CF93CDB7DEB727970FB6AB
:1018C000F894DEBF0FBECDBF8A836B835D834C83EC
:1018D00019828C819D81009709F458C08B818830D2
:1018E00008F054C08A81282F30E03F832E834E8138
:1018F0005F8141305105F9F08E819F8182309105E1
:1019000071F12E813F812115310509F03CC0E9E2DA
:10191000F0E08081282F30E08B81882F90E0A901B2
:1019200002C0559547958A95E2F7CA018170EC810E
:10193000FD8180832DC0E6E2F0E08081282F30E039
:101940008B81882F90E0A90102C0559547958A9513
:10195000E2F7CA018170EC81FD81808319C0E3E266
:10196000F0E08081282F30E08B81882F90E0A90162
:1019700002C0559547958A95E2F7CA018170EC81BE
:10198000FD81808305C081E0898302C081E0898375
:10199000898127960FB6F894DEBF0FBECDBFCF91D9
:1019A000DF910895DF93CF93CDB7DEB7AFE5B0E019
:1019B000EFE5F0E0808180688C93CF91DF9108950E
:1019C000DF93CF93CDB7DEB7AFE5B0E0EFE5F0E062
:1019D00080818F778C93CF91DF910895DF93CF93A0
:1019E000CDB7DEB7EAE2F0E08FE18083E7E2F0E036
:1019F0001082E4E2F0E087E08083EBE2F0E0108226
:101A0000E8E2F0E01082E5E2F0E01082CF91DF91B1
:101A10000895DF93CF93CDB7DEB7A2970FB6F894B2
:101A2000DEBF0FBECDBF0E94EE0C0E942C090E94AB
:101A3000D20C0E94AD051AA21F8E1E8E9E012E5D35
:101A40003F4F49E45EE080E0B9010E9455068AA15B
:101A5000882F90E0A0E0B0E028E833E140E050E0DB
:101A6000BC01CD010E94550EDC01CB01892F9A2FBC
:101A7000AB2FBB2799A388A388A199A12AE030E0C6
:101A8000B9010E94740ECB019F8F8E8F16C08E8D70
:101A90009F8D2AE030E0B9010E94740E8D8F8E8DEB
:101AA0009F8D2AE030E0B9010E94740ECB019F8F18
:101AB0008E8F8D8D805D0E940A088E8D9F8D009780
:101AC00031F780E090E0AAEFB4E4898F9A8FAB8F72
:101AD000BC8F698D7A8D8B8D9C8D20E030E04AEF34
:101AE00054E40E942902DC01CB018D8B9E8BAF8BCD
:101AF000B88F6D897E898F89988D20E030E040E82D
:101B00005FE30E94830388232CF481E090E09C8BA8
:101B10008B8B3FC06D897E898F89988D20E03FEF48
:101B20004FE757E40E94230318164CF5698D7A8D10
:101B30008B8D9C8D20E030E040E251E40E94290230
:101B4000DC01CB01BC01CD010E945300DC01CB01C3
:101B50009C8B8B8B0FC088EC90E09A8B898B89894A
:101B60009A890197F1F79A8B898B8B899C890197C8
:101B70009C8B8B8B8B899C89009769F714C06D892E
:101B80007E898F89988D0E945300DC01CB019C8B4C
:101B90008B8B8B899C89988B8F878F8598890197F0
:101BA000F1F7988B8F8781E00E94E80680E090E053
:101BB000AAEFB4E48B879C87AD87BE876B857C8555
:101BC0008D859E8520E030E04AEF54E40E94290292
:101BD000DC01CB018F839887A987BA876F817885CD
:101BE00089859A8520E030E040E85FE30E94830326
:101BF00088232CF481E090E09E838D833FC06F8129
:101C0000788589859A8520E03FEF4FE757E40E9469
:101C1000230318164CF56B857C858D859E8520E009
:101C200030E040E251E40E942902DC01CB01BC011A
:101C3000CD010E945300DC01CB019E838D830FC038
:101C400088EC90E09C838B838B819C810197F1F7DA
:101C50009C838B838D819E8101979E838D838D8153
:101C60009E81009769F7EACE6F81788589859A858C
:101C70000E945300DC01CB019E838D838D819E8168
:101C80009A83898389819A810197F1F79A8389835D
:101C9000D5CEDF93CF93CDB7DEB780E064E041E0EF
:101CA0000E94520BCF91DF910895629FD001739FE4
:101CB000F001829FE00DF11D649FE00DF11D929FE8
:101CC000F00D839FF00D749FF00D659FF00D992727
:101CD000729FB00DE11DF91F639FB00DE11DF91F4B
:101CE000BD01CF0111240895AA1BBB1B51E107C000
:101CF000AA1FBB1FA617B70710F0A61BB70B881F9C
:101D0000991F5A95A9F780959095BC01CD0108952A
:101D10002F923F924F925F926F927F928F929F92FB
:101D2000AF92BF92CF92DF92EF92FF920F931F93E9
:101D3000CF93DF93CDB7DEB7CA1BDB0B0FB6F8949A
:101D4000DEBF0FBECDBF09942A88398848885F84DA
:101D50006E847D848C849B84AA84B984C884DF804B
:101D6000EE80FD800C811B81AA81B981CE0FD11D2F
:101D70000FB6F894DEBF0FBECDBFED010895F89405
:021D8000FFCF93
:081D8200000000000000000059
:00000001FF
