:100000000C9434000C9430040C9463040C9446005B
:100010000C9446000C9446000C9446000C94460048
:100020000C9446000C9446000C9446000C94460038
:100030000C9446000C9446000C9446000C94460028
:100040000C9446000C9446000C9446000C94460018
:100050000C9446000C9446000C9446000C94460008
:100060000C9446000C94460011241FBECFEFD8E03C
:10007000DEBFCDBF11E0A0E0B1E001C01D92A43011
:10008000B107E1F70E94D0040C94F1040C94000035
:10009000DF93CF93CDB7DEB728970FB6F894DEBFC6
:1000A0000FBECDBF8A836B834C8319828B818830CE
:1000B00008F0B3C08C81882309F056C08A81282FAC
:1000C00030E038872F838F81988581309105F9F052
:1000D0002F8138852230310579F18F8198850097FD
:1000E00009F03FC0AAE2B0E0EAE2F0E08081482FE8
:1000F0008B81282F30E081E090E0022E02C0880F33
:10010000991F0A94E2F7809584238C9388C0A7E214
:10011000B0E0E7E2F0E08081482F8B81282F30E0CB
:1001200081E090E0022E02C0880F991F0A94E2F746
:10013000809584238C9373C0A4E2B0E0E4E2F0E005
:100140008081482F8B81282F30E081E090E0022EC3
:1001500002C0880F991F0A94E2F7809584238C933C
:100160005EC081E089835BC08C81813009F052C020
:100170008A81282F30E03E832D838D819E818130BE
:100180009105E9F02D813E812230310561F18D81AB
:100190009E810097E1F5AAE2B0E0EAE2F0E080811A
:1001A000482F8B81282F30E081E090E0022E02C0A2
:1001B000880F991F0A94E2F7842B8C9330C0A7E232
:1001C000B0E0E7E2F0E08081482F8B81282F30E01B
:1001D00081E090E0022E02C0880F991F0A94E2F796
:1001E000842B8C931CC0A4E2B0E0E4E2F0E08081B8
:1001F000482F8B81282F30E081E090E0022E02C052
:10020000880F991F0A94E2F7842B8C9308C081E031
:10021000898305C081E0898302C081E08983898167
:1002200028960FB6F894DEBF0FBECDBFCF91DF91F9
:100230000895DF93CF9300D000D00F92CDB7DEB7F3
:100240008A836B8319828A81282F30E03D832C8337
:100250008C819D818130910571F02C813D8122300E
:10026000310571F08C819D81009779F4EAE2F0E02C
:100270008B8180830CC0E7E2F0E08B81808307C034
:10028000E4E2F0E08B81808302C081E08983898190
:100290000F900F900F900F900F90CF91DF910895D6
:1002A000DF93CF93CDB7DEB728970FB6F894DEBFB4
:1002B0000FBECDBF8A836B834C8319828B818830BC
:1002C00008F0B3C08C81882309F056C08A81282F9A
:1002D00030E038872F838F81988581309105F9F040
:1002E0002F8138852230310579F18F8198850097EB
:1002F00009F03FC0ABE2B0E0EBE2F0E08081482FD4
:100300008B81282F30E081E090E0022E02C0880F20
:10031000991F0A94E2F7809584238C9388C0A8E201
:10032000B0E0E8E2F0E08081482F8B81282F30E0B8
:1003300081E090E0022E02C0880F991F0A94E2F734
:10034000809584238C9373C0A5E2B0E0E5E2F0E0F1
:100350008081482F8B81282F30E081E090E0022EB1
:1003600002C0880F991F0A94E2F7809584238C932A
:100370005EC081E089835BC08C81813009F052C00E
:100380008A81282F30E03E832D838D819E818130AC
:100390009105E9F02D813E812230310561F18D8199
:1003A0009E810097E1F5ABE2B0E0EBE2F0E0808106
:1003B000482F8B81282F30E081E090E0022E02C090
:1003C000880F991F0A94E2F7842B8C9330C0A8E21F
:1003D000B0E0E8E2F0E08081482F8B81282F30E008
:1003E00081E090E0022E02C0880F991F0A94E2F784
:1003F000842B8C931CC0A5E2B0E0E5E2F0E08081A4
:10040000482F8B81282F30E081E090E0022E02C03F
:10041000880F991F0A94E2F7842B8C9308C081E01F
:10042000898305C081E0898302C081E08983898155
:1004300028960FB6F894DEBF0FBECDBFCF91DF91E7
:100440000895DF93CF9300D000D00F92CDB7DEB7E1
:100450008A836B8319828A81282F30E03D832C8325
:100460008C819D818130910571F02C813D812230FC
:10047000310571F08C819D81009779F4EBE2F0E019
:100480008B8180830CC0E8E2F0E08B81808307C021
:10049000E5E2F0E08B81808302C081E0898389817D
:1004A0000F900F900F900F900F90CF91DF910895C4
:1004B000DF93CF93CDB7DEB727970FB6F894DEBFA3
:1004C0000FBECDBF8A836B835D834C8319828C8181
:1004D0009D81009709F458C08B81883008F054C082
:1004E0008A81282F30E03F832E834E815F81413007
:1004F0005105F9F08E819F818230910571F12E8135
:100500003F812115310509F03CC0E9E2F0E080812E
:10051000282F30E08B81882F90E0A90102C05595EB
:1005200047958A95E2F7CA018170EC81FD8180834D
:100530002DC0E6E2F0E08081282F30E08B81882F0B
:1005400090E0A90102C0559547958A95E2F7CA0146
:100550008170EC81FD81808319C0E3E2F0E080814D
:10056000282F30E08B81882F90E0A90102C055959B
:1005700047958A95E2F7CA018170EC81FD818083FD
:1005800005C081E0898302C081E089838981279643
:100590000FB6F894DEBF0FBECDBFCF91DF910895A7
:1005A000DF93CF93CDB7DEB7A9E6B0E0E9E6F0E0A0
:1005B00080818E7F8C93A9E6B0E0E9E6F0E080814F
:1005C00082608C93ADE3B0E0EDE3F0E08081816088
:1005D0008C93CF91DF910895DF93CF93CDB7DEB7A2
:1005E000A9E6B0E0E9E6F0E080818B7F8C93A9E694
:1005F000B0E0E9E6F0E0808188608C93ADE3B0E0A4
:10060000EDE3F0E0808182608C93CF91DF910895DB
:10061000DF93CF9300D0CDB7DEB78A8319828A816A
:10062000813079F4A9E6B0E0E9E6F0E080818E7FE0
:100630008C93A9E6B0E0E9E6F0E080818D7F8C93B1
:1006400038C08A81823079F4A9E6B0E0E9E6F0E0CA
:10065000808181608C93A9E6B0E0E9E6F0E08081DA
:100660008D7F8C9326C08A81833079F4A9E6B0E02F
:10067000E9E6F0E080818E7F8C93A9E6B0E0E9E6C0
:10068000F0E0808182608C9314C08A81843079F498
:10069000A9E6B0E0E9E6F0E0808181608C93A9E60C
:1006A000B0E0E9E6F0E0808182608C9302C081E0F6
:1006B000898389810F900F90CF91DF910895DF9307
:1006C000CF9300D0CDB7DEB78A8319828A8181307B
:1006D00079F4A9E6B0E0E9E6F0E080818B7F8C93C5
:1006E000A9E6B0E0E9E6F0E08081877F8C9338C02E
:1006F0008A81823079F4A9E6B0E0E9E6F0E0808111
:1007000084608C93A9E6B0E0E9E6F0E08081877F21
:100710008C9326C08A81833079F4A9E6B0E0E9E6BB
:10072000F0E080818B7F8C93A9E6B0E0E9E6F0E011
:10073000808188608C9314C08A81843079F4A9E622
:10074000B0E0E9E6F0E0808184608C93A9E6B0E057
:10075000E9E6F0E0808188608C9302C081E08983C3
:1007600089810F900F90CF91DF910895DF93CF9300
:1007700000D0CDB7DEB78A8319828A81813041F4F7
:10078000ADE3B0E0EDE3F0E0808181608C930DC0DB
:100790008A81823041F4ADE3B0E0EDE3F0E08081A6
:1007A00082608C9302C081E0898389810F900F90D1
:1007B000CF91DF910895DF93CF9300D0CDB7DEB70F
:1007C0008A8319828A81813041F4ADE3B0E0EDE3A0
:1007D000F0E080818E7F8C930DC08A81823041F45D
:1007E000ADE3B0E0EDE3F0E080818D7F8C9302C05B
:1007F00081E0898389810F900F90CF91DF910895D7
:10080000DF93CF9300D000D0CDB7DEB78A837C834F
:100810006B8319828A81813059F48B819C81009786
:1008200039F08B819C81909301018093000110C06D
:100830008A81823059F48B819C81009739F08B81B9
:100840009C81909303018093020102C081E089831F
:1008500089810F900F900F900F90CF91DF910895A5
:100860001F920F920FB60F9211242F933F934F9325
:100870005F936F937F938F939F93AF93BF93EF9308
:10088000FF93DF93CF93CDB7DEB7809100019091B6
:100890000101009729F0E0910001F0910101099513
:1008A000CF91DF91FF91EF91BF91AF919F918F9188
:1008B0007F916F915F914F913F912F910F900FBE5C
:1008C0000F901F9018951F920F920FB60F92112440
:1008D0002F933F934F935F936F937F938F939F9348
:1008E000AF93BF93EF93FF93DF93CF93CDB7DEB773
:1008F0008091020190910301009729F0E09102019B
:10090000F09103010995CF91DF91FF91EF91BF9194
:10091000AF919F918F917F916F915F914F913F9197
:100920002F910F900FBE0F901F901895DF93CF93CC
:10093000CDB7DEB7AFE5B0E0EFE5F0E080818068ED
:100940008C93CF91DF910895DF93CF93CDB7DEB72E
:10095000AFE5B0E0EFE5F0E080818F778C93CF9149
:10096000DF910895DF93CF93CDB7DEB7EAE2F0E0F1
:1009700083E08083E7E2F0E08FE08083E4E2F0E070
:1009800087E08083EBE2F0E08CE08083E8E2F0E057
:1009900086E08083E5E2F0E01082CF91DF91089558
:1009A000DF93CF93CDB7DEB70E94B20483E00E94FD
:1009B000080382E00E94B6030E94960425EE34E00C
:1009C00082E0B9010E940004FFCFDF93CF93CDB73F
:1009D000DEB781E060E041E00E945001CF91DF91FD
:0609E0000895F894FFCF1A
:00000001FF
